:100000000C943A000C9457000C9457000C94570031
:100010000C9457000C9457000C9457000C94570004
:100020000C9457000C9457000C9457000C945700F4
:100030000C9457000C9457000C9457000C945700E4
:100040000C9457000C9457000C9457000C945700D4
:100050000C9457000C9457000C9457000C945700C4
:100060000C9457000C9457000C9457000C945700B4
:100070000C94570011241FBECFEFD4E0DEBFCDBFDC
:1000800012E0A0E0B1E0E4E0FEE102C005900D92D4
:10009000AA3CB107D9F723E0AAECB2E001C01D9257
:1000A000A438B207E1F70E94780D0C94000F0C946D
:1000B0000000DC01E62F842F65E00E94E40DE80FCC
:1000C000EA0FFB2FF11D20830895EF92FF920F930B
:1000D0001F93CF93DF938091EE0281114BC08CE28E
:1000E00091E00E94310D84EF91E00E94B40C81E018
:1000F00090E00E94AA0C81E090E00E94AF0C8AE0A0
:100100000E94A40C06ED12E0CEECD2E09AECE92EAF
:1001100092E0F92EC8010E94360389939993D70182
:100120001D927D010A5F1F4FB2E0C63DDB0791F7CC
:10013000E4E1F3E0119283E0E733F807D9F76EE0EA
:1001400071E08091D0029091D1020E94DB0264E1C3
:1001500071E08091D4029091D5020E94DB026AE1A5
:1001600071E08091D2029091D3020E94DB0281E083
:100170008093EE0280910C0190910D01039749F557
:10018000C0EDD2E00BEC12E086EDE82E82E0F82E16
:10019000899199910E94EE02D8018D938D01EC1600
:1001A000FD06B1F7D0E004E113E07801C0E0D7012B
:1001B000ED917D01F0E0E653FD4F6081CE010E949C
:1001C000FC0ACF5FC53099F70B5F1F4FDF5FD73059
:1001D00061F7DF91CF911F910F91FF90EF900C94F9
:1001E000B90C80911003909111030C9415096115BD
:1001F000710521F06130710549F008956DE972E0F3
:1002000080911003909111030C94EB0860EA72E066
:10021000F7CFEF92FF920F931F93CF93DF93CDB75A
:10022000DEB7AC970FB6F894DEBF0FBECDBF80919E
:10023000F102811129C00E94900761E080E00E94D4
:10024000880742E050E067E373E090E080E00E94BE
:10025000DE06809137038F3F21F41092370310920E
:10026000380304E113E029E530E047E065E084E687
:1002700090E00E94F70370E060E087EF90E00E945A
:10028000210481E08093F10280910C0190910D0195
:100290008230910509F476C080F4019709F463C0B7
:1002A000AC960FB6F894DEBF0FBECDBFDF91CF91F5
:1002B0001F910F91FF90EF9008958330910551F0B9
:1002C000049771F78091F0028F5F8093F002883C71
:1002D00038F355C00E9428048111E2CF62EA72E02F
:1002E000CE0101960E94900E8E010F5F1F4F980164
:1002F0002F5F3F4FF8018081811131C00E94D806E5
:1003000040E0B8010E94410D7801FFEFEF1AFF0AAB
:10031000F8018081811125C08FE280830E94DB0675
:1003200040E0B7010E94410D0E94980BCE0101965A
:100330000E94970C65E571E0809110039091110384
:100340000E94EB081092F00261E080E00E948807B2
:1003500084E090E090930D0180930C01A1CF89017E
:10036000C6CF8701D1CF8DEA92E00E94970C6EE94B
:1003700071E080911003909111030E94EB0885E0D9
:1003800090E0E8CF0E94980B809138038F5F8093B4
:10039000380380913703833009F444C050F581302D
:1003A000A1F18230C9F110E01E7F1D7F04E083E0DF
:1003B0000E94E803802F0E94E503812F0E94F4032E
:1003C0000E94650642E050E067E373E090E080E061
:1003D0000E94F40666EC72E0809110039091110384
:1003E0000E94EB0860E080E00E94880783E090E0D4
:1003F000B1CF8430F1F08530B1F610E08FEF80FBA3
:1004000010F980FB11F902E01BC010E01E7FFFEF26
:10041000F0FB11F903E0CBCF10E08FEF80FB10F978
:100420001D7FF8CF10E0EFEFE0FB10F9E0FB11F9D2
:10043000F1CF10E0FFEFF0FB10F9F0FB11F903E052
:1004400084E0B6CFCF93DF93D62FC72FE7ECF2E04F
:10045000919191110BC040E00E94410D0E94980BB8
:100460008D2F9C2FDF91CF910C94970CDB019D93E6
:10047000BD01EECFCF93DF93CDB7DEB7AC970FB60C
:10048000F894DEBF0FBECDBF8091EF02811105C091
:100490000E94C40881E08093EF020E945B0881E023
:1004A0000E942B088823C1F080910C0190910D01CE
:1004B0008330910509F461C0069771F48091370388
:1004C000843018F48F5F80933703BE016F5F7F4FD6
:1004D000809137030E94220283E00E942B08882328
:1004E000C1F080910C0190910D018330910509F4C8
:1004F00047C0069771F480913703823018F081501D
:1005000080933703BE016F5F7F4F809137030E9456
:10051000220283E00E942B08882399F080910C012D
:1005200090910D01059769F486E090E090930D019C
:1005300080930C01BE016F5F7F4F809137030E9453
:10054000220284E00E942B08882371F080910C0124
:1005500090910D0185309105B1F086309105D1F073
:10056000039711F40E943206AC960FB6F894DEBFE2
:100570000FBECDBFDF91CF9108950E942C06ACCF66
:100580000E942F06C6CF82E090E090930D018093E9
:100590000C01EACF85E090E0F8CF809112039091B2
:1005A00013030E945F0A882319F05C9A5E980895ED
:1005B0005C985E9A0895FC017183608312821382B5
:1005C0001482158281E00895FC0180819181089553
:1005D000FC0112821382648381E00895FC01A081F2
:1005E000B181109709F440C082818F5F82839C9112
:1005F000891730F0128285818F5F8830B0F485834F
:10060000928111968C911197981760F493811396AB
:100610008C911397981730F481E0248114969C9163
:10062000291708F080E081700895158283818F5F1B
:10063000838312969C911297891710F313828481F9
:100640008F5F848315969C911597911109C014961C
:100650009C9114978917A0F21182108281E008956D
:10066000891770F21482CCCF80E00895FC011182CA
:10067000108212821382148215820895CF93DF9321
:100680009B01A9E3B3E09E96ED91FC919F97EC014D
:1006900049816881D0968D919C91DF91CF91099489
:1006A000EF92FF920F931F93CF93DF93EC01A091F2
:1006B0004503EA2EF12C40E0242F042E000C330BCE
:1006C0002E153F0554F0F0E0E0E0CF01DF91CF912F
:1006D0001F910F91FF90EF900895C90163E070E0C2
:1006E0000E94ED0D8C01075C1C4FD80112968C9175
:1006F0001297882369F0F8010C171D0749F09C91A7
:100700008881981305C011969C9189819817E9F208
:100710004F5FD2CFCF93C82F70E060E08BE593E0BE
:100720000E943E0380915B038C0F90915D038917BB
:100730006CF487FF02C08FEF890F80935B0361E049
:1007400070E08BE593E0CF910C943E0380E0F5CF11
:10075000E0916B03F0916C03309731F0BC01809114
:100760006D0390916E0309940895DB01FC011282E0
:10077000E9E3F3E081A5815081A786A18F5F86A37D
:1007800012961C92129770E060E0CD010E943E0329
:1007900090E080E00C94A803809366030895E9E359
:1007A000F3E0682F70E082A593A50E940A0E768779
:1007B00065870895E9E3F3E0682F70E082A593A5CB
:1007C0000E940A0E778F668F0895809365030895BF
:1007D000853008F084E0809345030895853008F063
:1007E00084E080935603089580936F0308950F93D8
:1007F0001F93CF93DF93C9E3D3E06CA34DA33FA72F
:100800002EA719AB08AB1FAA9BA78AA71BAA1AAAD7
:10081000EFE6F3E080818E7F8D7F808383E08C879D
:1008200082E08D8F80E10E94DA0382E00E94CF0394
:1008300084E08CA785E08DA7DF91CF911F910F9168
:100840000895E9E3F3E093AB82AB75AB64AB089535
:100850006F927F929F92AF92BF92CF92DF92EF9270
:10086000FF920F931F93CF93DF9380915903909141
:100870005A03019690935A0380935903209157038A
:10088000309158038217930708F056C0E090700328
:10089000EE2009F442C080914803909149030196EB
:1008A0009093490380934803209146033091470376
:1008B0008217930790F11092490310924803C0E009
:1008C0002C2F0C2E000C330B80914503821713063E
:1008D00011F00CF081C0F12C99249394CF2D0F2CA2
:1008E000000CDD0B809145038C171D0611F00CF0F8
:1008F00087C080916203C0916503811101C0C2E08D
:100900000E94800E6C2F70E00E941E0E2091450305
:1009100030E040E0892B09F42AC18E2DDF91CF9180
:100920001F910F91FF90EF90DF90CF90BF90AF900D
:100930009F907F906F90089510925A0310925903E0
:10094000F12C0F2D0F2C000C110B809156038017EA
:10095000110609F00CF49ACFC80163E070E00E9420
:10096000ED0DFC01E75CFC4F8389882329F1C80168
:1009700063E070E00E94ED0DEC01C65BDC4F9189F5
:1009800080915B03981305C0928980915C0398174E
:1009900029F070E060E0CE010E943E03C80163E0F0
:1009A00070E00E94ED0DFC01E75CFC4F92899150D4
:1009B000928B97FF03C01A82F394C3CF63E070E079
:1009C000CE010E943E03CE010E9450030097A1F386
:1009D000BE010E94B503F7CFC90163E070E00E9439
:1009E000ED0D875C9C4FDC0112968C911297882349
:1009F00029F070E060E0CD010E943E03CF5F60CF40
:100A0000CE0163E070E00E94ED0D8C01075C1C4F8D
:100A1000F8018281882309F486C081818F5F8183F8
:100A20000E94800E8170880F3FEF380FE0916F03B6
:100A3000E1FF14C060915B03062E000C770BD80118
:100A40009C91432F032E000C550B490F511D97FD10
:100A50005A956417750711F4392D381BCE0163E0E0
:100A600070E00E94ED0DDC01A75CBC4F2C91230FC0
:100A70002C9327FD04C080915D032817B4F0CE01AC
:100A800063E070E00E94ED0DE0FF4FC0FC01E75C09
:100A9000FC4F022E000C330B37FF03C0319521951C
:100AA000310990915D03921B9083CE0163E070E069
:100AB0000E94ED0D8C01075C1C4FD80111969C9192
:100AC00080915E0398172CF462E070E0C8010E94E8
:100AD0003E03CE0163E070E00E94ED0D875C9C4F09
:100AE000FC012181422F022E000C550B80915E03E8
:100AF000082E000C990B0197481759070CF473C086
:100B000080915C03821318C0809160038F5F809393
:100B1000600390916603891710F01092700381E0D2
:100B200090E00E94A803F394D9CE875C9C4F330FCA
:100B3000231BFC012083B9CFD80112961C9280910F
:100B4000620381508093620361E070E08BE593E083
:100B50000E943E03E8CFCE0163E070E00E94ED0DFD
:100B6000FC01E75CFC4F8281882349F04F5FC42F72
:100B7000042E000CDD0BC217D3076CF3CECECE01D2
:100B800063E070E00E94ED0D8C01075C1C4F118248
:100B9000FF24F3940E94800E9C01CE0163E070E07C
:100BA0000E94ED0DFC01E75CFC4F60915D03062E99
:100BB000000C770BC9010E941E0E8083F282C801CF
:100BC0000E945003892B31F7809162038F5F8093DD
:100BD000620362E070E0C8010E943E039ECEBD0148
:100BE000C8010E94B503E09156036E2E712C40E0BF
:100BF000242F042E000C330B261537050CF093CF51
:100C0000C90163E070E00E94ED0D875C9C4F5C01C0
:100C1000FC0183898823F1F0C90163E070E00E9440
:100C2000ED0DDC01A65BBC4F0A171B0799F0CE0146
:100C300063E070E00E94ED0D875C9C4F6C01918930
:100C4000F6018081981306C0F5019289F601818131
:100C5000981729F24F5FCCCF81E00C948A038FEF75
:100C60000C948A032091560330E040E0E42F042ED8
:100C7000000CFF0BE217F3070CF00895CF0163E0BF
:100C800070E00E94ED0DDC01A75CBC4F53968C9187
:100C90005397882311F04F5FE9CF80915B039091C8
:100CA0005C0352969C938E935197CF0163E070E062
:100CB0000E94ED0D875C9C4F21E0FC01238B80910D
:100CC00061038F5F8093610308950F931F93CF9308
:100CD000DF9300D0CDB7DEB710925A0310925903BC
:100CE00010924903109248032091560330E040E0EF
:100CF000842F042E000C990B82179307A4F12091E6
:100D0000450330E040E0842F042E000C990B82173D
:100D100093079CF110E080915D0318170CF446C016
:100D200087FD8F5F85958E7F80935B0380915E0347
:100D3000815080935C0361E070E08BE593E00E945A
:100D40003E031092620310925F03109260031092B0
:100D5000610381E0809370030F900F90DF91CF913A
:100D60001F910F91089563E070E00E94ED0D875C84
:100D70009C4FFC01138A4F5FBBCF63E070E00E9481
:100D8000ED0D875C9C4FFC0112824F5FBCCF198335
:100D90000A8370E060E0CE0101960E943E030F5F7F
:100DA00080915E0308179CF31F5FB5CF00E0F8CF7A
:100DB00080915F0308958091610308959B01240F42
:100DC000351FFB01861B970BBC016E0F7F1FE217BF
:100DD000F30711F4CA010895F999FECF72BD61BD00
:100DE000F89A60B56193F0CF9B01240F351FFB018A
:100DF000861B970BBC016E0F7F1FE217F30711F4E0
:100E0000CA010895A191F999FECF72BD61BDA0BD3F
:100E1000FA9AF99AEFCFE1E6F0E080E88083108259
:100E2000A89584B7877F84BFE0E6F0E08081886181
:100E30008083108208951092800084E08093810066
:100E40001092850010928400089580918400909102
:100E500085000895AC0180918400909185009C01EB
:100E6000241B350B283E3340B0F7089520918400B1
:100E700030918500820F931F0C942A07853098F4D7
:100E8000673088F421E030E001C0220F6A95EAF76C
:100E9000E82FF0E0EE58FC4F822F80959081892357
:100EA0004111822B80830895853080F4673070F47F
:100EB000E82FF0E0EE58FC4F81E090E001C0880F91
:100EC0006A95EAF79081982381E009F480E008951B
:100ED00060917103E62FF0E0EE58FC4F80810E9494
:100EE000C107809171038F5F853018F4809371037F
:100EF0000895109271030895E2E7F3E010821182E1
:100F000012821382148208950E949F070C947C071A
:100F1000811105C0662311F0429A08954298089500
:100F20003A9A429A08959C01FC01FF2784A1832BE1
:100F300084A395A1892F832B85A381E00895CF9366
:100F4000DF93CAE7D2E0899199910E94930782E0EA
:100F5000C838D807C1F783E090E40E94930780E087
:100F600090E80E94930783E090E10E94930783E05A
:100F700090E80E94930783E090E2DF91CF910C9478
:100F80009307E0917703F0E0EE0FFF1FE059FD4F6C
:100F900020813181F901FF2795A1932B95A3AAE721
:100FA000B2E02D913D91F901FF2780FF1CC025A1E2
:100FB000932F9095922395A3869592E0A838B90730
:100FC00081F7E62FF0E0EE0FFF1FE059FD4F208183
:100FD0003181F901FF2795A1832F8095892385A36E
:100FE00060937703089595A1932BE5CF6230710547
:100FF00059F128F461307105E1F080E00895633023
:10100000710559F064307105C1F7FC01FF2784A117
:10101000892B84A385A1892B09C0FC01FF2784A10A
:10102000892B84A325A1892F8095822385A381E024
:101030000895FC01FF2724A1892F8095922F9823E2
:1010400094A395A18923F2CFFC01FF2724A1892F26
:1010500080958223DECFE82FF0E0EE0FFF1FE858E7
:10106000FC4F8081882329F0818191E0892781705C
:10107000089580E0FCCFE82FF0E0EE0FFF1FE85866
:10108000FC4F8081811103C081818170089580E0CF
:10109000FCCFE82FF0E0EE0FFF1FE858FC4F8081F7
:1010A0000895E82FF0E0EE0FFF1FE858FC4F908105
:1010B00081E0892708957F928F929F92AF92BF928D
:1010C000CF92DF92EF92FF920F931F93CF93DF9314
:1010D000C8E7D3E058E8C52E52E0D52E66E0762E5C
:1010E00088818983F601019111916F015801BB2418
:1010F000F50124A1E12EFF2485A190E08E219F21FE
:1011000030E02E213F21232BB1F133E0832E912CAF
:10111000892B19F094E0892E912C64E070E0C801CD
:101120000E94F60762E070E0C8010E94F607872D72
:101130008A95F1F7F50183A190E0E822F92281E098
:10114000EF2809F080E08883B401C8010E94F60707
:101150002296F3E0C238DF0719F6DF91CF911F9195
:101160000F91FF90EF90DF90CF90BF90AF909F9046
:101170008F907F90089588248394912C892B69F215
:1011800082E0882E912CC9CF0895FC01858996892B
:1011900060EF70E00E94ED0D9C018685648570E033
:1011A00090E00E94ED0DBC01660F771F660F771F60
:1011B000C9010E940A0E63830895CF93DF93EC0167
:1011C000E989FA8940E06D858B899C8909951D869E
:1011D000DF91CF910895CF93DF93EC0178876F83F0
:1011E0007E836D831A8619861B8684E0888B8C87A4
:1011F000CE010E94C508CE010E94DD081982188226
:1012000081E08A83DF91CF910895FC0166870C9479
:10121000C508FC016787089521E0FC01858196815E
:10122000892B09F420E0822F0895EF92FF920F930B
:101230001F93CF93DF93EC010D811E8101151105E2
:1012400011F188819981009771F0019799838883C2
:10125000892BC9F4CE01DF91CF911F910F91FF909F
:10126000EF900C94DD088A81882369F081508A838D
:10127000811109C0F801A081A1110CC0CE010E940A
:10128000DD081E830D83DF91CF911F910F91FF9099
:10129000EF9008954181433221F10F5F1F4FF80114
:1012A00020812B3211F02D32F9F40F5F1F4FF8011E
:1012B00080E030E08F017F019FEFE91AF90A908109
:1012C00050ED590F5A3090F0AE3309F446C004F592
:1012D000AA3209F459C094F4E12CA03291F661E0ED
:1012E00076C00E5F1F4FDBCF20E0E1CF6AE00E94A7
:1012F000E40D8053890F31E0F701DCCFAA3309F404
:1013000040C0AC3309F0BDCFFA87E9871B86B2CF66
:10131000A8345CF4A1340CF03FC0A03409F0B1CF84
:10132000882309F4A7CF8E8733C0AB3509F0A9CF46
:101330002B85022E000C330B8150990B281739078F
:1013400009F498CF8F018191882309F493CF8B35CD
:1013500009F490CF8E33B1F78DCF2B852F5F2B877C
:10136000811101C082E0022E000C330B821713069C
:1013700009F00CF47FCF09851A850115110509F0D4
:1013800079CF0F81188576CF882309F473CF8C87A6
:10139000CE010E94C5086ECF0A2E000CBB0BAF5ABF
:1013A000BD4F9C91433209F49F5F3111888B2B32E2
:1013B00049F4945F88898F5F6CE00E94E40DE82E09
:1013C000E90E8DCF2D32B1F79C50F4CF6F5F8F01B6
:1013D000808131968F32D1F3F62EFF0CFF0C8E32C6
:1013E000C9F48F2D8695F80E8F01E989FA894F850A
:1013F0006E2D8B899C890995ED862C812A838B81A2
:101400006F2D70E090E00E94ED0D821B9109998391
:10141000888337CF8C3249F78F01F694E6CFFC01F1
:10142000CB01768B658B528B418B348B238B24E6DF
:101430002787158611821082128262E370E00E9473
:10144000ED0D68EE73E00E940A0E648384E08487E9
:1014500088EC8687CF010895FC016183428308955B
:10146000DC01662311F0411106C011961C92119700
:1014700012961C9208956832F8F0E8EDE60F8E2F70
:101480006CE00E94FE0D982F64EF0E94E40DE80FBF
:1014900015966D917C911697E60FF72FF11D8081BF
:1014A000915058F411968C931197642F70E090E04E
:1014B0000E94ED0D12969C9308958695F1CFFC0144
:1014C00080818F5F80839181891708F0108281E08D
:1014D00020819281291708F080E00895FC0174832F
:1014E000638356834583118212820895009789F0A1
:1014F000FC012381621B67FD09C0062E000C770BDF
:10150000948181E09617170609F00CF480E0817051
:10151000089580E00895FC01892B71F181814817BD
:1015200058F59281291740F59381A62FA91BA7FD95
:1015300023C00A2E000CBB0B94819A171B06E1F006
:10154000DCF0622F0E94E40D480F858190E0BD0120
:101550000E94ED0D242F269526952695E80FF91F5C
:10156000E20FF11D868190E0477002C09595879546
:101570004A95E2F78170089580E00895182F092FA9
:10158000F62E0E941B070E942507C12FD02F8E81A7
:101590009F810E942A07E881F9818A819B810995B0
:1015A0008E819F812C813D81820F931F9F838E832B
:1015B0000E942507BC01E12FF02F4FEF5FEF90E075
:1015C0009F1529F326813781DB01A21BB30B9D01F7
:1015D0002F3FBFE73B0758F031952195310924177C
:1015E000350710F4A901EF019F5F3896E9CFEF01AD
:1015F000CECF692F0C94540741E0611101C040E047
:10160000692F0C943E070C94FC0A7F928F929F9254
:10161000AF92BF92CF92DF92EF92FF920F931F9300
:10162000CF93DF93762E872EB42E7C01C62F660FC4
:10163000DD0BC81BD10987FDD395072F770F110B41
:101640000F191109F7FC1395AA24AA94D7FD02C01B
:10165000AA24A39499249A9417FD02C099249394E0
:10166000D7FF03C0D195C195D10917FF03C01195CC
:10167000019511096E01D594C794C017D107F4F4F0
:101680006801D594C794F814D9F06B2DC7010E9456
:10169000FC0ACC1ADD0AD7FE03C0C00ED11EEA0C2C
:1016A000F90CF1CF6B2DC7010E94FC0AC01AD10AB8
:1016B000D7FE03C0CC0EDD1EF90CEA0CE710F2CF0A
:1016C0006B2DC701DF91CF911F910F91FF90EF908C
:1016D000DF90CF90BF90AF909F908F907F900C94B1
:1016E000FC0AFF920F931F93CF93DF93D82FF92E0D
:1016F000162FC72F042F792F0E94050B402F6D2F17
:101700007C2F8D2F9F2D0E94050B402F612F7C2F4A
:10171000812F9F2D0E94050B402F612F7C2F8D2F35
:101720009C2FDF91CF911F910F91FF900C94050B8F
:101730000E947C07E0E2F1E0118A14860895DF92AE
:10174000EF92FF920F931F93CF93DF93D82E7B01DD
:10175000162F0F2D8091220190912301C0E0019757
:1017600051F11E2D1C0FE0912801F091290181817A
:10177000C81708F45CC0C0E0E0912801F09129018D
:101780008281C81708F455C01F5F27C02D2F4C2F2A
:101790006D2D0E948B0A682F8E2D8D0F902F0E9429
:1017A000FC0ADF5F8091280190912901FC012281D0
:1017B000D21760F3CF5F0F2D0C1BE0912801F09141
:1017C00029018181C81798F0C0E0E0912801F091CB
:1017D00029018281C81768F00150812F902FDF9175
:1017E000CF911F910F91FF90EF90DF900895D0E07F
:1017F000D9CF60E08E2D8C0F902F0E94FC0ACF5F16
:10180000E4CF2D2F4C2F6D2D0E948B0A682F812F36
:101810009F2D9D0F0E94FC0ADF5F8091280190910F
:101820002901FC012281D21760F3CF5F9ACFD0E06B
:10183000F4CF60E0812F9F2D9C0F0E94FC0ACF5FA8
:101840009BCF0F931F93CF938C01C0E0F801819140
:101850008F01882341F00E949F0BBC01CF5F853030
:1018600014F477FFF3CF8C2FCF911F910F91089530
:101870000F931F93CF93DF9310922C0140932D0170
:1018800010923001009128011091290101151105D4
:1018900009F448C09B01EC01F801818160912601A7
:1018A0007091270190E00E94ED0DBC0180912A010A
:1018B00090912B010E940A0ECB016AE070E00E9419
:1018C000ED0D90932F0180932E01309325012093ED
:1018D000240140E250E0BE0181E391E00E94970EB6
:1018E00080912001909121010197E1F4FE01019086
:1018F0000020E9F73197BF016C1B7D0BF801818156
:101900008F5F0E94E40D81502091220130912301CC
:1019100095E02130310509F497E0981718F48EEF1F
:1019200080933001DF91CF911F910F910895209105
:1019300022013091230170E02130310509F476E075
:101940004FEF60E00C94380C90E090932701809367
:10195000260108959093210180932001089590938A
:1019600023018093220108959093290180932801F7
:10197000089580918203909183030196909383034D
:101980008093820320912E0130912F0182179307BB
:1019900008F441C01092830310928203E0912C015D
:1019A000F0E0E05EFE4F8189811109C080912D0138
:1019B000823088F1815080932D0110922C0180910A
:1019C0002C0190E0FC01E05EFE4F2189222319F1F9
:1019D0002091300140912001509121014115510584
:1019E000E1F04130510551F1809130018F5F8093DA
:1019F0003001082E000C990BE0912801F09129018B
:101A00002181281719063CF41092300180912C0195
:101A10008F5F80932C010C9468072111E5CF6091B2
:101A20002401709125018F5C9E4F0E94210C9091A2
:101A30002C019150890F80932C01D6CF6091240105
:101A400070912501409122015091230141305105AF
:101A500031F4720F8F5C9E4F0E94210CC5CF621B28
:101A6000F9CFCF93DF93C0E2D1E09B878A870E94B2
:101A7000840784E190E09F838E83DF91CF910C9463
:101A8000980BCF93DF9300D000D0CDB7DEB7582F9F
:101A9000FB018091990290919A02A0919B02B091D2
:101AA0009C0289839A83AB83BC8330E0A1E0B0E0E1
:101AB000AC0FBD1FA30FB11D2C91211108C01082C6
:101AC0000F900F900F900F90DF91CF910895852F79
:101AD000622F0E94FE0D411104C0811102C021300D
:101AE00029F4805D8083592F319641E03F5FDECF3E
:101AF000CF93DF93CDB7DEB7A8970FB6F894DEBFCC
:101B00000FBECDBFFE01339686E2DF011D928A959E
:101B1000E9F78DEC92E09A83898386E090E09E83DA
:101B20008D8381EF90E09A87898788E391E09E8793
:101B30008D8725E630E03A8B298B28E630E03E8B16
:101B40002D8B2AE332E03A8F298F2AE136E03E8F4F
:101B50002D8F29E031E03AA329A39EA38DA30E94F3
:101B60000B0740E051E068E873E182EF92E00E94E9
:101B70006E0A9093130380931203549A5C98569ABA
:101B80005E98209112033091130340E35AE064E61B
:101B900070E089EF92E00E940F0A90931103809306
:101BA000100368EC0E94050965E0CE0101960E94D1
:101BB000BE0A90E080E0A8960FB6F894DEBF0FBE94
:101BC000CDBFDF91CF910895002480FD060E660FF2
:101BD00011F08695D1F7802D08950024552704C073
:101BE000080E591F880F991F009729F07695679561
:101BF000B8F37105B9F7802D952F0895991B79E0F9
:101C000004C0991F961708F0961B881F7A95C9F78C
:101C100080950895AA1BBB1B51E107C0AA1FBB1FDB
:101C2000A617B70710F0A61BB70B881F991F5A9568
:101C3000A9F780959095BC01CD01089597FB072EDB
:101C400016F4009407D077FD09D00E940A0E07FC15
:101C500005D03EF4909581959F4F089570956195BC
:101C60007F4F08958F929F92AF92BF92CF92DF9253
:101C7000EF92FF92CF93DF93EC01688179818A81A3
:101C80009B81611571058105910521F464E279ED6F
:101C90008BE597E02DE133EF41E050E00E94BF0E6D
:101CA00049015A0127EA31E440E050E00E94A60EC3
:101CB0006B017C012CEE34EF4FEF5FEFC501B401F7
:101CC0000E94A60EDC01CB018C0D9D1DAE1DBF1D1B
:101CD000B7FF03C00197A109B04888839983AA83FD
:101CE000BB839F77DF91CF91FF90EF90DF90CF90F4
:101CF000BF90AF909F908F9008950E94320E0895EC
:101D000081E591E00E94320E0895B0E0A0E080935A
:101D1000510190935201A0935301B093540108953F
:101D2000FB01DC0101900D920020E1F70895FB0119
:101D3000DC014150504048F001900D920020C9F75D
:101D400001C01D9241505040E0F70895EE27FF2753
:101D5000AA27BB2708C0A20FB31FE41FF51F220F3D
:101D6000331F441F551F969587957795679598F370
:101D70007040A9F7009799F7BD01CF010895052E8E
:101D800097FB1EF400940E94D60E57FD07D00E94C8
:101D9000DE0E07FC03D04EF40C94D60E5095409501
:101DA000309521953F4F4F4F5F4F08959095809507
:101DB000709561957F4F8F4F9F4F0895A1E21A2E26
:101DC000AA1BBB1BFD010DC0AA1FBB1FEE1FFF1FDF
:101DD000A217B307E407F50720F0A21BB30BE40B2F
:101DE000F50B661F771F881F991F1A9469F7609576
:101DF0007095809590959B01AC01BD01CF01089530
:041E0000F894FFCF84
:101E04003D393633302D2B282624222001000505A8
:101E14000505010105050505010103030301010190
:101E2400000000000000140000000000000000009A
:101E3400000000000000000000000000000000009E
:101E4400000000000000000000000000000000008E
:101E540000010000002A383C472F2F2F3E333C441A
:101E6400232F2F4123472F2F2F3E32202F2F2F4454
:101E74002B2F2F2F442B2F2F2F442B2F2F2F442347
:101E84002B2F2F412346232F2F2F44232F2F412342
:101E9400472F2F2F202F2F2F202020203E002A389D
:101EA400453345424245324542334244444141442C
:101EB4003444413341413241453345414142424337
:101EC4003443423342414147474545424245324506
:101ED4004233424444414144344441334141324118
:101EE40045334541414242433443423342414142F6
:101EF400423E2000010305203B0200009220EB73C8
:101F04007D5FDE3DA552EA7A14004A222229BA2EC8
:101F1400D0050014C0010020A4126A2B9A74A37285
:101F2400A338ED498F38CE2AA712AA2AAE49100445
:101F340010145444380E11152A250000EA5BEB3ABC
:101F44004F726B3BCF73CF134F7AED5B9774247B47
:101F54005D564972FD5B6F5B6F7BEF136F7FEF57CD
:101F6400CE3897246D7B6D2BED5FAD5AAD24A772EF
:101F74000340008003100380032000400020001071
:101F840000080004000200010380034003200080D5
:101F94000310090B0002040507640A0100432B0027
:101FA400430047414D45204F564552200053504170
:101FB4004345592052454144592056312E3620423A
:0A1FC40059204D504820004C000049
:00000001FF
