:100000000C943A000C9457000C9457000C94570031
:100010000C9457000C9457000C9457000C94570004
:100020000C9457000C9457000C9457000C945700F4
:100030000C9457000C9457000C9457000C945700E4
:100040000C9457000C9457000C9457000C945700D4
:100050000C9457000C9457000C9457000C945700C4
:100060000C9457000C9457000C9457000C945700B4
:100070000C94570011241FBECFEFD4E0DEBFCDBFDC
:1000800011E0A0E0B1E0E4E2FAE002C005900D92D8
:10009000A83CB107D9F721E0A8ECB1E001C01D925E
:1000A000A63DB207E1F70E9484040C9410050C945D
:1000B00000000C94FC03CF93DF9300D01F92CDB7C8
:1000C000DEB78091CA0181110AC01092C901109255
:1000D000C8010F900F900F90DF91CF9108958091FC
:1000E000C8019091C901EAE0F0E0BF010E94ED046F
:1000F000282FCB01BF010E94ED04805D8983205D24
:100100002A831B82CE0101960E94DA038091C801E6
:100110009091C90101969093C9018093C801D9CFEC
:100120000E94FF0080E00E94D100882331F080917E
:10013000CA0191E089278093CA010895E1E6F0E0C1
:1001400080E880831082A89584B7877F84BFE0E62B
:10015000F0E0808188618083108208951092800091
:1001600084E08093810010928500109284000895AD
:1001700080918400909185000895AC018091840065
:10018000909185009C01241B350B283E3340B0F72D
:1001900008952091840030918500820F931F0C9464
:1001A000BD0081110CC08091CB01882331F080917A
:1001B000CC0191E089278170089580E0FCCF80E038
:1001C000089581110AC08091CB01811104C08091F2
:1001D000CC018170089580E0FCCF80E0089581110A
:1001E00003C08091CB01089580E00895811105C07E
:1001F0008091CB0191E08927089580E00895EBEC90
:10020000F1E08081818389B1881F8827881F8083DE
:10021000089557985F980895853098F4673088F46A
:1002200021E030E001C0220F6A95EAF7E82FF0E004
:10023000E253FE4F822F8095908189234111822BBA
:1002400080830895853080F4673070F4E82FF0E003
:10025000E253FE4F81E090E001C0880F6A95EAF713
:100260009081982381E009F480E008956091CD01A8
:10027000E62FF0E0E253FE4F80810E9484018091DE
:10028000CD018F5F853018F48093CD0108951092D1
:10029000CD010895EEECF1E01082118212821382FA
:1002A000148208950E9462010C944A019C01FC0191
:1002B000FF2784A1832B84A395A1892F832B85A35A
:1002C00081E00895CF93DF93C7EBD1E089919991B5
:1002D0000E94560181E0C53CD807C1F783E090E455
:1002E0000E94560180E090E80E94560183E090E170
:1002F0000E94560183E090E80E94560183E090E25C
:10030000DF91CF910C945601E091D301F0E0EE0F14
:10031000FF1FE355FE4F20813181F901FF2795A191
:10032000932B95A3A7EBB1E02D913D91F901FF2708
:1003300080FF1CC025A1932F9095922395A38695AD
:1003400091E0A53CB90781F7E62FF0E0EE0FFF1F23
:10035000E355FE4F20813181F901FF2795A1832FBD
:100360008095892385A36093D301089595A1932B4C
:10037000E5CF009789F0FC012381621B67FD09C06E
:10038000062E000C770B948181E09617170609F072
:100390000CF480E08170089580E00895FC01892BC1
:1003A00071F18181481758F59281291740F59381A1
:1003B000A62FA91BA7FD23C00A2E000CBB0B9481FE
:1003C0009A171B06E1F0DCF0622F0E94D304480F5D
:1003D000858190E0BD010E94DC04242F269526959E
:1003E0002695E80FF91FE20FF11D868190E0477016
:1003F00002C0959587954A95E2F78170089580E04F
:100400000895182F092FF62E0E94AE000E94B80002
:10041000C12FD02F8E819F810E94BD00E881F9817C
:100420008A819B8109958E819F812C813D81820FDC
:10043000931F9F838E830E94B800BC01E12FF02F91
:100440004FEF5FEF90E09F1529F326813781DB01A5
:10045000A21BB30B9D012F3FBFE73B0758F031951F
:10046000219531092417350710F4A901EF019F5F89
:100470003896E9CFEF01CECF692F0C94220141E0ED
:10048000611101C040E0692F0C940C010C943F02F3
:100490007F928F929F92AF92BF92CF92DF92EF9214
:1004A000FF920F931F93CF93DF93762E872EB42E58
:1004B0007C01C62F660FDD0BC81BD10987FDD395C4
:1004C000072F770F110B0F191109F7FC1395AA24A9
:1004D000AA94D7FD02C0AA24A39499249A9417FD44
:1004E00002C099249394D7FF03C0D195C195D10937
:1004F00017FF03C01195019511096E01D594C7949A
:10050000C017D107F4F46801D594C794F814D9F052
:100510006B2DC7010E943F02CC1ADD0AD7FE03C033
:10052000C00ED11EEA0CF90CF1CF6B2DC7010E9451
:100530003F02C01AD10AD7FE03C0CC0EDD1EF90C53
:10054000EA0CE710F2CF6B2DC701DF91CF911F911D
:100550000F91FF90EF90DF90CF90BF90AF909F9062
:100560008F907F900C943F02FF920F931F93CF9335
:10057000DF93D82FF92E162FC72F042F792F0E9423
:100580004802402F6D2F7C2F8D2F9F2D0E944802F7
:10059000402F612F7C2F812F9F2D0E944802402FDA
:1005A000612F7C2F8D2F9C2FDF91CF911F910F9169
:1005B000FF900C9448020E944A01E0E0F1E0118AA9
:1005C00014860895DF92EF92FF920F931F93CF93BB
:1005D000DF93D82E7B01162F0F2D80910201909171
:1005E0000301C0E0019751F11E2D1C0FE09108019D
:1005F000F09109018181C81708F45CC0C0E0E09166
:100600000801F09109018281C81708F455C01F5FE5
:1006100027C02D2F4C2F6D2D0E94CE01682F8E2DBF
:100620008D0F902F0E943F02DF5F80910801909113
:100630000901FC012281D21760F3CF5F0F2D0C1B43
:10064000E0910801F09109018181C81798F0C0E09C
:10065000E0910801F09109018281C81768F001500A
:10066000812F902FDF91CF911F910F91FF90EF90ED
:10067000DF900895D0E0D9CF60E08E2D8C0F902FC1
:100680000E943F02CF5FE4CF2D2F4C2F6D2D0E9493
:10069000CE01682F812F9F2D9D0F0E943F02DF5FAB
:1006A0008091080190910901FC012281D21760F329
:1006B000CF5F9ACFD0E0F4CF60E0812F9F2D9C0FC9
:1006C0000E943F02CF5F9BCF0F931F93CF938C016C
:1006D000C0E0F80181918F01882341F00E94E2027D
:1006E000BC01CF5F853014F477FFF3CF8C2FCF910F
:1006F0001F910F9108950F931F93CF93DF93109243
:100700000C0140930D01109210010091080110910D
:1007100009010115110509F448C09B01EC01F8011C
:100720008181609106017091070190E00E94DC04D4
:10073000BC0180910A0190910B010E94ED04CB0154
:100740006AE070E00E94DC0490930F0180930E0138
:10075000309305012093040140E250E0BE0181E1A5
:1007600091E00E94010580910001909101010197A3
:10077000E1F4FE0101900020E9F73197BF016C1B05
:100780007D0BF80181818F5F0E94D30481502091FD
:1007900002013091030195E02130310509F497E021
:1007A000981718F48EEF80931001DF91CF911F916D
:1007B0000F910895209102013091030170E02130E2
:1007C000310509F476E04FEF60E00C947B0390E094
:1007D00090930701809306010895909301018093FF
:1007E000000108959093030180930201089590936E
:1007F00009018093080108958091D4019091D50159
:1008000001969093D5018093D40120910E013091EF
:100810000F018217930708F441C01092D50110927E
:10082000D401E0910C01F0E0E050FF4F818981118B
:1008300009C080910D01823088F1815080930D01B3
:1008400010920C0180910C0190E0FC01E050FF4FF0
:100850002189222319F1209110014091000150912A
:10086000010141155105E1F04130510551F18091EF
:1008700010018F5F80931001082E000C990BE091FE
:100880000801F09109012181281719063CF4109202
:10089000100180910C018F5F80930C010C94360144
:1008A0002111E5CF60910401709105018F5E9E4F8B
:1008B0000E94640390910C019150890F80930C0168
:1008C000D6CF6091040170910501409102015091D1
:1008D00003014130510531F4720F8F5E9E4F0E942B
:1008E0006403C5CF621BF9CFCF93DF93C0E0D1E0A3
:1008F0009B878A870E94520184E190E09F838E83C8
:10090000DF91CF910C94DB02CF93DF93CDB7DEB7AD
:1009100068970FB6F894DEBF0FBECDBFFE013396C9
:1009200086E1DF011D928A95E9F789E590E09A83D7
:1009300089838DE790E09E838D8380E990E09A879C
:10094000898788E391E09E878D872BE530E03A8B9D
:10095000298B9E8B8D8B0E949E008AEF90E00E94D7
:10096000740481E391E00E94F70390E080E00E942C
:10097000ED0381E090E00E94F2030E94090185EC02
:1009800091E00E94DA0363E0CE0101960E94010229
:1009900090E080E068960FB6F894DEBF0FBECDBF42
:1009A000DF91CF910895002480FD060E660F11F0AF
:1009B0008695D1F7802D08950024552704C0080E90
:1009C000591F880F991F009729F076956795B8F3FE
:1009D0007105B9F7802D952F0895AA1BBB1B51E116
:1009E00007C0AA1FBB1FA617B70710F0A61BB70B9F
:1009F000881F991F5A95A9F780959095BC01CD0144
:100A00000895FB01DC014150504048F001900D92E7
:100A10000020C9F701C01D9241505040E0F70895F1
:040A2000F894FFCF78
:100A240000000000000014000000000000000000AE
:100A340000000000000000000000000000000000B2
:100A440000000000000000000000000000000000A2
:100A540000010305203B0200009220EB737D5FDE62
:100A64003DA552EA7A14004A222229BA2ED0050062
:100A740014C0010020A4126A2B9A74A372A338ED47
:100A8400498F38CE2AA712AA2AAE4910041014544A
:100A940044380E11152A250000EA5BEB3A4F726BBD
:100AA4003BCF73CF134F7AED5B9774247B5D56492C
:100AB40072FD5B6F5B6F7BEF136F7FEF57CE3897E1
:100AC400246D7B6D2BED5FAD5AAD24A772034000FE
:100AD4008003100380032000400020001000080061
:080AE4000400020001303000A3
:00000001FF
